:100000000C9434000C9451000C9451000C94510049
:100010000C9451000C9451000C9451000C9451001C
:100020000C9451000C9451000C9451000C9451000C
:100030000C9451000C9451000C9451000C945100FC
:100040000C945C030C9451000C9451000C945100DE
:100050000C9451000C9451000C9451000C945100DC
:100060000C9451000C94510011241FBECFEFD8E026
:10007000DEBFCDBF11E0A0E0B1E0E6E7F1E102C0F4
:1000800005900D92A432B107D9F721E0A4E2B1E0C6
:1000900001C01D92AC36B207E1F70E94AB030C948D
:1000A000B9080C94000040E062E080E00E943B024E
:1000B0000895CF9310920301109202018FEF93E005
:1000C0009093010180930001C8EC80E00E9425021A
:1000D00020910201309103018217930720F0909341
:1000E0000301809302012091000130910101281742
:1000F000390720F0909301018093000145E34A9570
:10010000F1F70000C15009F7809101018F938091B0
:1001100000018F93809103018F93809102018F934F
:1001200086E091E09F938F938AE391E09F938F9372
:100130000E940B068AE391E00E9403018091020174
:100140009091030120910001309101014DB75EB7FC
:10015000485F5F4F0FB6F8945EBF0FBE4DBF821B66
:10016000930BCF910895CF93CAE00E945900BC0130
:1001700080E090E00E94100520E030E44CE955E476
:100180000E949E0520E030EC4FE754E40E94680492
:1001900020912401309125014091260150912701A1
:1001A0000E94FC0360932401709325018093260133
:1001B00090932701C150C9F620E030E040E251E4BD
:1001C0000E946804609324017093250180932601A6
:1001D0009093270129EC36EC40EB53E40E949E05F6
:1001E00020E030E047E553E40E946804CF91089591
:1001F000CF93DF93C82FD92F0E9491038C2F9D2F6F
:10020000DF91CF910895CF93DF93EC01888188230C
:1002100061F021960E9491038FE39CE90197F1F729
:1002200000C0000089918111F5CFDF91CF91089531
:100230008F929F92AF92BF92CF92DF92EF92FF92F6
:100240004B015C010E94DA046B017C01072E000C5B
:10025000880B990B0E9412059B01AC01C501B401EA
:100260000E94FB0320E030E04AE754E40E949E0530
:100270000E94DA047F936F93DF92CF9282E191E044
:100280009F938F938AE391E09F938F930E940B0635
:100290008AE391E00E9403018DB79EB708960FB6DE
:1002A000F8949EBF0FBE8DBFFF90EF90DF90CF9070
:1002B000BF90AF909F908F90089541E063E082E0FF
:1002C0000E943B02089541E063E082E00E94DE026A
:1002D000089540E063E082E00E94DE02089540E07D
:1002E00062E081E00E943B020895CF9310922D01BD
:1002F00010922C018FEF93E09093050180930401FD
:10030000C8EC81E00E94250220912C0130912D0142
:100310008217930720F090932D0180932C01209158
:100320000401309105012817390720F09093050149
:100330008093040145E34A95F1F70000C15009F7A5
:10034000809105018F93809104018F9380912D01FD
:100350008F9380912C018F9386E091E09F938F93F0
:100360008AE391E09F938F930E940B068AE391E0CA
:100370000E94030180912C0190912D012091040194
:10038000309105014DB75EB7485F5F4F0FB6F894E7
:100390005EBF0FBE4DBF821B930BCF910895CF93CD
:1003A000CAE00E947501BC0180E090E00E94100547
:1003B00020E030E44CE955E40E949E0520E030EC5A
:1003C0004FE754E40E9468042091280130912901EC
:1003D00040912A0150912B010E94FC036093280157
:1003E0007093290180932A0190932B01C150C9F683
:1003F00020E030E44CE156E40E9468046093280158
:100400007093290180932A0190932B0121E834E015
:1004100045EB5EE30E949E0526EA3AE046E65FE38E
:100420000E949E0520E030E046E653E40E949E05CF
:10043000CF910895ECE7F0E0808180648083EAE763
:10044000F0E08081876880830895ECE7F0E0908198
:10045000987F8770892B8083EAE7F0E08081806451
:100460008083808186FDFDCF809178002091790086
:1004700090E0922B08956230D1F1633009F46BC0A3
:10048000613009F09AC041110EC044B121E030E062
:10049000B90102C0660F771F8A95E2F7CB018095FC
:1004A000842384B90895413069F444B121E030E0F7
:1004B000B90102C0660F771F8A95E2F7CB01842B42
:1004C00084B90895423009F078C044B121E030E0A9
:1004D000B90102C0660F771F8A95E2F7CB01962F0C
:1004E0009095942394B995B1892B85B908954111BC
:1004F0000EC047B121E030E0B90102C0660F771F9E
:100500008A95E2F7CB018095842387B9089541301D
:1005100069F447B121E030E0B90102C0660F771FEE
:100520008A95E2F7CB01842B87B90895423009F010
:1005300044C047B121E030E0B90102C0660F771F27
:100540008A95E2F7CB01962F9095942397B998B1AD
:10055000892B88B9089541110EC04AB121E030E0DD
:10056000B90102C0660F771F8A95E2F7CB0180952B
:1005700084238AB90895413069F44AB121E030E01A
:10058000B90102C0660F771F8A95E2F7CB01842B71
:100590008AB90895423089F44AB121E030E0B901C6
:1005A00002C0660F771F8A95E2F7CB01962F9095D0
:1005B00094239AB99BB1892B8BB90895623029F1A4
:1005C000633009F441C0613009F05CC0413069F426
:1005D00045B121E030E0B90102C0660F771F8A956E
:1005E000E2F7CB01842B85B9089541114BC045B189
:1005F00021E030E0B90102C0660F771F8A95E2F76B
:10060000CB018095842385B90895413069F448B1C0
:1006100021E030E0B90102C0660F771F8A95E2F74A
:10062000CB01842B88B9089541112CC048B121E039
:1006300030E0B90102C0660F771F8A95E2F7CB015F
:100640008095842388B90895413069F44BB121E045
:1006500030E0B90102C0660F771F8A95E2F7CB013F
:10066000842B8BB9089541110DC04BB121E030E0CE
:10067000B90102C0660F771F8A95E2F7CB0180951A
:1006800084238BB9089584B18C6284B924988CB585
:1006900081658CBD8CB58F7D8CBD2A9A089514BC64
:1006A00015BC85B5836085BD86E086BDEEE6F0E0CD
:1006B00080818160808308951F920F920FB60F9200
:1006C00011248F939F93AF93BF9380912E019091AC
:1006D0002F01A0913001B09131010196A11DB11DF2
:1006E00080932E0190932F01A0933001B09331019C
:1006F000BF91AF919F918F910F900FBE0F901F9060
:1007000018951092C50087E68093C400E1ECF0E0F4
:10071000808188618083E2ECF0E080818660808364
:100720000895E0ECF0E0908195FFFDCF8093C60046
:100730000895E0ECF0E080818823ECF78091C6001A
:100740000895813419F40E9463010895823411F4EC
:100750000E94690108950E944F030E9481030E9434
:100760001A020E9443030E946F010E9453000E94DC
:100770005D010E94CF016093360170933701809331
:100780003801909339010E94B30060933201709355
:10079000330180933401909335016091360170915B
:1007A000370180913801909139010E9418018FE042
:1007B00091E00E94030160913201709133018091B8
:1007C0003401909135010E9418018FE091E00E9460
:1007D00003010E9499030E94A10388E191E00E9415
:1007E00003012FEF89E698E1215080409040E1F726
:1007F00000C00000BECF5058BB27AA270E94130498
:100800000C9464050E94560538F00E945D0520F0A6
:1008100039F49F3F19F426F40C9453050EF4E09537
:10082000E7FB0C944D05E92F0E94750558F3BA17A4
:10083000620773078407950720F079F4A6F50C94F6
:1008400097050EF4E0950B2EBA2FA02D0B01B901E0
:1008500090010C01CA01A0011124FF27591B99F036
:10086000593F50F4503E68F11A16F040A22F232F42
:10087000342F4427585FF3CF469537952795A79592
:10088000F0405395C9F77EF41F16BA0B620B730B39
:10089000840BBAF09150A1F0FF0FBB1F661F771FAA
:1008A000881FC2F70EC0BA0F621F731F841F48F45F
:1008B000879577956795B795F7959E3F08F0B0CFE8
:1008C0009395880F08F09927EE0F979587950895CF
:1008D0000E947C040C9464050E945D0558F00E94FF
:1008E000560540F029F45F3F29F00C944D05511155
:1008F0000C9498050C9453050E94750568F3992390
:10090000B1F3552391F3951B550BBB27AA2762170B
:100910007307840738F09F5F5F4F220F331F441F18
:10092000AA1FA9F335D00E2E3AF0E0E832D091504C
:100930005040E695001CCAF72BD0FE2F29D0660F39
:10094000771F881FBB1F261737074807AB07B0E87C
:1009500009F0BB0B802DBF01FF2793585F4F3AF082
:100960009E3F510578F00C944D050C9498055F3F1F
:10097000E4F3983ED4F3869577956795B795F79508
:100980009F5FC9F7880F911D9695879597F90895F0
:10099000E1E0660F771F881FBB1F6217730784078C
:1009A000BA0720F0621B730B840BBA0BEE1F88F79B
:1009B000E09508950E94E1046894B1110C949805A3
:1009C00008950E947D0588F09F5798F0B92F9927C8
:1009D000B751B0F0E1F0660F771F881F991F1AF02A
:1009E000BA95C9F714C0B13091F00E949705B1E0F3
:1009F00008950C949705672F782F8827B85F39F0F2
:100A0000B93FCCF3869577956795B395D9F73EF4C2
:100A100090958095709561957F4F8F4F9F4F08956A
:100A2000E89409C097FB3EF4909580957095619588
:100A30007F4F8F4F9F4F9923A9F0F92F96E9BB273E
:100A40009395F695879577956795B795F111F8CFBA
:100A5000FAF4BB0F11F460FF1BC06F5F7F4F8F4F25
:100A60009F4F16C0882311F096E911C0772321F01B
:100A70009EE8872F762F05C0662371F096E8862FB3
:100A800070E060E02AF09A95660F771F881FDAF70A
:100A9000880F9695879597F9089597F99F6780E84D
:100AA00070E060E008959FEF80EC089500240A94C0
:100AB0001616170618060906089500240A94121639
:100AC0001306140605060895092E0394000C11F46C
:100AD000882352F0BB0F40F4BF2B11F460FF04C019
:100AE0006F5F7F4F8F4F9F4F089557FD9058440F72
:100AF000551F59F05F3F71F04795880F97FB991F7D
:100B000061F09F3F79F08795089512161306140639
:100B1000551FF2CF4695F1DF08C0161617061806C6
:100B2000991FF1CF86957105610508940895E894A1
:100B3000BB2766277727CB0197F908950E94B10557
:100B40000C9464050E94560538F00E945D0520F063
:100B5000952311F00C944D050C94530511240C941D
:100B600098050E94750570F3959FC1F3950F50E0AD
:100B7000551F629FF001729FBB27F00DB11D639F4F
:100B8000AA27F00DB11DAA1F649F6627B00DA11DF5
:100B9000661F829F2227B00DA11D621F739FB00D9B
:100BA000A11D621F839FA00D611D221F749F33270B
:100BB000A00D611D231F849F600D211D822F762FA4
:100BC0006A2F11249F5750409AF0F1F088234AF081
:100BD000EE0FFF1FBB1F661F771F881F91505040ED
:100BE000A9F79E3F510580F00C944D050C94980593
:100BF0005F3FE4F3983ED4F3869577956795B79574
:100C0000F795E7959F5FC1F7FE2B880F911D96958D
:100C1000879597F90895AEE0B0E0E1E1F6E00C9435
:100C200090080D891E8986E08C831A8309838FEFD3
:100C30009FE79E838D83AE01475E5F4F6F89788DFE
:100C4000CE0101960E942D06EF81F885E00FF11F7D
:100C500010822E96E4E00C94AC08ABE0B0E0E3E345
:100C6000F6E00C9482086C017B018A01FC0117827A
:100C70001682838181FFCCC1CE0101963C01F60131
:100C80009381F70193FD859193FF81917F018823E3
:100C900009F4BAC1853239F493FD859193FF8191AE
:100CA0007F01853229F4B60190E00E94F800E7CF79
:100CB000912C212C312CFFE1F315D8F08B3279F0F7
:100CC00038F4803279F08332A1F4232D20611DC0E5
:100CD0008D3261F0803369F4232D216016C0832D9D
:100CE0008260382EE32DE4603E2E2AC0F32DF8609A
:100CF0001DC037FC2DC020ED280F2A3040F08E3269
:100D0000B9F436FC81C1232D2064322E19C036FE81
:100D100006C08AE0989E200D1124922E11C0EAE0B0
:100D20002E9E200D1124222EF32DF0623F2E08C09E
:100D30008C3621F4832D8068382E02C0883641F429
:100D4000F70193FD859193FF81917F018111B3CFCD
:100D5000982F9F7D9554933028F40C5F1F4F9FE38D
:100D600099830DC0833631F0833771F0833509F0F4
:100D700059C021C0F801808189830E5F1F4F8824EC
:100D80008394912C530113C02801F2E04F0E511CA3
:100D9000F801A080B18036FE03C0692D70E002C06A
:100DA0006FEF7FEFC5010E9419084C018201F32DFE
:100DB000FF773F2E16C0280122E0420E511CF80199
:100DC000A080B18036FE03C0692D70E002C06FEFD5
:100DD0007FEFC5010E940E084C01F32DF0683F2EF5
:100DE000820133FC1BC0822D90E088169906B0F476
:100DF000B60180E290E00E94F8002A94F4CFF50159
:100E000037FC859137FE81915F01B60190E00E9429
:100E1000F80021102A9421E0821A9108811491048B
:100E200071F7E8C0843611F0893641F5F80137FED4
:100E300007C060817181828193810C5F1F4F08C060
:100E400060817181072E000C880B990B0E5F1F4F7C
:100E5000F32DFF763F2E97FF09C0909580957095F2
:100E600061957F4F8F4F9F4FF0683F2E2AE030E013
:100E7000A3010E942408882E861845C0853731F4C6
:100E8000232D2F7EB22E2AE030E025C0932D997FAE
:100E9000B92E8F36C1F018F4883579F0B5C0803797
:100EA00019F0883721F0B0C0E92FE061BE2EB4FE02
:100EB0000DC0FB2DF460BF2E09C034FE0AC0292FDF
:100EC0002660B22E06C028E030E005C020E130E008
:100ED00002C020E132E0F801B7FE07C060817181F5
:100EE000828193810C5F1F4F06C06081718180E019
:100EF00090E00E5F1F4FA3010E942408882E8618E1
:100F0000FB2DFF773F2E36FE0DC0232D2E7FA22E08
:100F1000891458F434FE0BC032FC09C0832D8E7E38
:100F2000A82E05C0B82CA32C03C0B82C01C0B92C26
:100F3000A4FE0FC0FE01E80DF11D8081803321F475
:100F40009A2D997EA92E09C0A2FE06C0B394B3942F
:100F500004C08A2D867809F0B394A3FC11C0A0FECA
:100F600006C0B21488F4280C922C9B180EC0B21440
:100F700060F4B60180E290E00E94F800B394F7CFED
:100F8000B21418F42B1802C0982C212CA4FE10C007
:100F9000B60180E390E00E94F800A2FE17C0A1FC19
:100FA00003C088E790E002C088E590E0B6010CC07D
:100FB0008A2D867859F0A1FE02C08BE201C080E242
:100FC000A7FC8DE2B60190E00E94F800891438F485
:100FD000B60180E390E00E94F8009A94F7CF8A94DB
:100FE000F301E80DF11D8081B60190E00E94F80048
:100FF0008110F5CF222009F442CEB60180E290E0C4
:101000000E94F8002A94F6CFF6018681978102C0EB
:101010008FEF9FEF2B96E2E10C949E08FC01059068
:10102000615070400110D8F7809590958E0F9F1FEA
:101030000895FC016150704001900110D8F780952F
:1010400090958E0F9F1F0895FA01AA27283051F11D
:10105000203181F1E8946F936E7F6E5F7F4F8F4FE9
:101060009F4FAF4FB1E03ED0B4E03CD0670F781F48
:10107000891F9A1FA11D680F791F8A1F911DA11D2D
:101080006A0F711D811D911DA11D20D009F4689466
:101090003F912AE0269F11243019305D3193DEF60E
:1010A000CF010895462F4770405D4193B3E00FD0C4
:1010B000C9F7F6CF462F4F70405D4A3318F0495DAF
:1010C00031FD4052419302D0A9F7EACFB4E0A69592
:1010D0009795879577956795BA95C9F700976105B4
:1010E000710508959B01AC010A2E0694579547950A
:1010F00037952795BA95C9F7620F731F841F951FFF
:10110000A01D08952F923F924F925F926F927F920F
:101110008F929F92AF92BF92CF92DF92EF92FF9207
:101120000F931F93CF93DF93CDB7DEB7CA1BDB0BB3
:101130000FB6F894DEBF0FBECDBF09942A88398858
:1011400048885F846E847D848C849B84AA84B9845F
:10115000C884DF80EE80FD800C811B81AA81B9816B
:10116000CE0FD11D0FB6F894DEBF0FBECDBFED017F
:061170000895F894FFCF82
:10117600FF036400FF03202564202C202564200A39
:101186000D0025642E256400646174612073656E0C
:04119600740A0D00CA
:00000001FF
